:020000040800F2
:10000000005000209D2D0008992B00089F2B000810
:10001000A52B0008AB2B0008B12B00080000000046
:10002000000000000000000000000000B72B0008E6
:10003000C32B000800000000CF2B0008DB2B0008BA
:10004000E52D0008E52D0008E52D0008E52D000848
:10005000E52D0008E52D0008E52D0008E52D000838
:10006000E52D0008E52D0008E52D0008E52D000828
:10007000E52D0008E52D0008E52D0008E52D000818
:10008000E52D0008E52D0008E92B0008E52D000806
:10009000E52D0008E52D0008E52D0008E52D0008F8
:1000A000E52D0008E52D0008E52D0008E52D0008E8
:1000B000E52D0008E52D0008E52D0008E52D0008D8
:1000C000E52D0008E52D0008E52D0008E52D0008C8
:1000D000E52D0008FD2B0008E52D0008E52D0008A2
:1000E000E52D0008E52D0008E52D000800000000C2
:1000F0000000000000000000000000000000000000
:0C01000000000000000000005FF808F1A3
:1001100010B5054C237833B9044B13B10448AFF341
:1001200000800123237010BD200200200000000089
:10013000F4B1000808B5034B1BB103490348AFF302
:10014000008008BD0000000024020020F4B1000877
:10015000034613F8012B002AFBD1181A0138704707
:1001600081F0004102E000BF83F0004330B54FEA68
:1001700041044FEA430594EA050F08BF90EA020FD5
:100180001FBF54EA000C55EA020C7FEA645C7FEA68
:10019000655C00F0E2804FEA5454D4EB5555B8BF8B
:1001A0006D420CDD2C4480EA020281EA030382EAFC
:1001B000000083EA010180EA020281EA0303362D8E
:1001C00088BF30BD11F0004F4FEA01314FF4801C61
:1001D0004CEA113102D0404261EB410113F0004F73
:1001E0004FEA03334CEA133302D0524263EB43032A
:1001F00094EA050F00F0A780A4F10104D5F1200EC8
:100200000DDB02FA0EFC22FA05F2801841F1000122
:1002100003FA0EF2801843FA05F359410EE0A5F1F6
:1002200020050EF1200E012A03FA0EFC28BF4CF027
:10023000020C43FA05F3C01851EBE37101F00045DD
:1002400007D54FF0000EDCF1000C7EEB00006EEBEA
:100250000101B1F5801F1BD3B1F5001F0CD3490874
:100260005FEA30004FEA3C0C04F101044FEA4452CB
:1002700012F5800F80F09A80BCF1004F08BF5FEA52
:10028000500C50F1000041EB045141EA050130BD32
:100290005FEA4C0C404141EB0101013C28BFB1F544
:1002A000801FE9D291F0000F04BF01460020B1FA8F
:1002B00081F308BF2033A3F10B03B3F120020CDA62
:1002C0000C3208DD02F1140CC2F10C0201FA0CF040
:1002D00021FA02F10CE002F11402D8BFC2F1200CA5
:1002E00001FA02F120FA0CFCDCBF41EA0C0190405B
:1002F000E41AA2BF01EB0451294330BD6FEA0404A4
:100300001F3C1CDA0C340EDC04F11404C4F120028E
:1003100020FA04F001FA02F340EA030021FA04F3A0
:1003200045EA030130BDC4F10C04C4F1200220FAF7
:1003300002F001FA04F340EA0300294630BD21FA35
:1003400004F0294630BD94F0000F83F4801306BFFB
:1003500081F480110134013D4EE77FEA645C18BFEF
:100360007FEA655C29D094EA050F08BF90EA020F86
:1003700005D054EA000C04BF1946104630BD91EA7E
:10038000030F1EBF0021002030BD5FEA545C05D181
:100390004000494128BF41F0004130BD14F58004C0
:1003A0003CBF01F5801130BD01F0004545F0FE4134
:1003B00041F470014FF0000030BD7FEA645C1ABF69
:1003C000194610467FEA655C1CBF0B46024650EAA0
:1003D000013406BF52EA033591EA030F41F40021CC
:1003E00030BD00BF90F0000F04BF0021704730B552
:1003F0004FF4806404F132044FF000054FF0000127
:1004000050E700BF90F0000F04BF0021704730B5E7
:100410004FF4806404F1320410F0004548BF4042BC
:100420004FF000013EE700BF42004FEAE2014FEA11
:1004300031014FEA02701FBF12F07F4393F07F4FEC
:1004400081F06051704732F07F4208BF704793F0EF
:100450007F4F04BF41F40021704730B54FF4607402
:1004600001F0004521F000411CE700BF50EA010205
:1004700008BF704730B54FF000050AE050EA0102AE
:1004800008BF704730B511F0004502D5404261EB1E
:1004900041014FF4806404F132045FEA915C3FF45F
:1004A000D8AE4FF003025FEADC0C18BF03325FEAFC
:1004B000DC0C18BF033202EBDC02C2F1200300FAAD
:1004C00003FC20FA02F001FA03FE40EA0E0021FAD2
:1004D00002F11444BDE600BF70B54FF0FF0C4CF4C0
:1004E000E06C1CEA11541DBF1CEA135594EA0C0F72
:1004F00095EA0C0F00F0DEF82C4481EA030621EAAD
:100500004C5123EA4C5350EA013518BF52EA0335E7
:1005100041F4801143F4801338D0A0FB02CE4FF099
:100520000005E1FB02E506F00042E0FB03E54FF0C9
:100530000006E1FB03569CF0000F18BF4EF0010EC1
:10054000A4F1FF04B6F5007F64F5407404D25FEABD
:100550004E0E6D4146EB060642EAC62141EA555170
:100560004FEAC52040EA5E504FEACE2EB4F1FD0CB2
:1005700088BFBCF5E06F1ED8BEF1004F08BF5FEA30
:10058000500E50F1000041EB045170BD06F00046E2
:1005900046EA010140EA020081EA0301B4EB5C048F
:1005A000C2BFD4EB0C0541EA045170BD41F4801187
:1005B0004FF0000E013C00F3AB8014F1360FDEBFAC
:1005C000002001F0004170BDC4F10004203C35DA88
:1005D0000C341BDC04F11404C4F1200500FA05F30B
:1005E00020FA04F001FA05F240EA020001F00042AC
:1005F00021F0004110EBD37021FA04F642EB060122
:100600005EEA430E08BF20EAD37070BDC4F10C044B
:10061000C4F1200500FA04F320FA05F001FA04F20F
:1006200040EA020001F0004110EBD37041F10001FB
:100630005EEA430E08BF20EAD37070BDC4F1200506
:1006400000FA05F24EEA020E20FA04F301FA05F26E
:1006500043EA020321FA04F001F0004121FA04F216
:1006600020EA020000EBD3705EEA430E08BF20EAE6
:10067000D37070BD94F0000F0FD101F00046400020
:1006800041EB010111F4801F08BF013CF7D041EAA2
:10069000060195F0000F18BF704703F000465200A6
:1006A00043EB030313F4801F08BF013DF7D043EA77
:1006B0000603704794EA0C0F0CEA135518BF95EA2D
:1006C0000C0F0CD050EA410618BF52EA4306D1D1B4
:1006D00081EA030101F000414FF0000070BD50EAD3
:1006E000410606BF1046194652EA430619D094EA5D
:1006F0000C0F02D150EA013613D195EA0C0F05D147
:1007000052EA03361CBF104619460AD181EA03019A
:1007100001F0004141F0FE4141F470014FF0000052
:1007200070BD41F0FE4141F4780170BD70B54FF0ED
:10073000FF0C4CF4E06C1CEA11541DBF1CEA13556D
:1007400094EA0C0F95EA0C0F00F0A7F8A4EB05044F
:1007500081EA030E52EA03354FEA013100F0888046
:100760004FEA03334FF0805545EA131343EA12630F
:100770004FEA022245EA111545EA10654FEA0026C4
:100780000EF000419D4208BF964244F1FD0404F57D
:10079000407402D25B084FEA3202B61A65EB0305D9
:1007A0005B084FEA32024FF480104FF4002CB6EB96
:1007B000020E75EB030E22BFB61A754640EA0C0016
:1007C0005B084FEA3202B6EB020E75EB030E22BF56
:1007D000B61A754640EA5C005B084FEA3202B6EB97
:1007E000020E75EB030E22BFB61A754640EA9C0056
:1007F0005B084FEA3202B6EB020E75EB030E22BF26
:10080000B61A754640EADC0055EA060E18D04FEAE3
:10081000051545EA16754FEA06164FEAC30343EA83
:1008200052734FEAC2025FEA1C1CC0D111F4801F50
:100830000BD141EA00014FF000004FF0004CB6E749
:1008400011F4801F04BF01430020B4F1FD0C88BFE8
:10085000BCF5E06F3FF6AFAEB5EB030C04BFB6EBF3
:10086000020C5FEA500C50F1000041EB045170BDE6
:100870000EF0004E4EEA113114EB5C04C2BFD4EB13
:100880000C0541EA045170BD41F480114FF0000E97
:10089000013C90E645EA060E8DE60CEA135594EA13
:1008A0000C0F08BF95EA0C0F3FF43BAF94EA0C0F16
:1008B0000AD150EA01347FF434AF95EA0C0F7FF48B
:1008C00025AF104619462CE795EA0C0F06D152EADF
:1008D00003353FF4FDAE1046194622E750EA4106C3
:1008E00018BF52EA43067FF4C5AE50EA41047FF4D4
:1008F0000DAF52EA43057FF4EBAE12E74FF0FF3C39
:1009000006E000BF4FF0010C02E000BF4FF0010C09
:100910004DF804CD4FEA410C7FEA6C5C4FEA430C82
:1009200018BF7FEA6C5C1BD001B050EA410C0CBFD1
:1009300052EA430C91EA030F02BF90EA020F002033
:10094000704710F1000F91EA030F58BF994208BF9A
:1009500090422CBFD8176FEAE37040F00100704757
:100960004FEA410C7FEA6C5C02D150EA013C07D1AE
:100970004FEA430C7FEA6C5CD6D152EA033CD3D0F9
:100980005DF8040B704700BF8446104662468C46F3
:100990001946634600E000BF01B5FFF7B7FF002826
:1009A00048BF10F1000F01BD4DF808EDFFF7F4FF4F
:1009B0000CBF012000205DF808FB00BF4DF808EDDA
:1009C000FFF7EAFF34BF012000205DF808FB00BFFD
:1009D0004DF808EDFFF7E0FF94BF012000205DF81F
:1009E00008FB00BF4DF808EDFFF7CEFF94BF0120D4
:1009F00000205DF808FB00BF4DF808EDFFF7C4FFCD
:100A000034BF012000205DF808FB00BF4FEA410C15
:100A10007FEA6C5C02D150EA013C0AD14FEA430CF8
:100A20007FEA6C5C02D152EA033C02D14FF0000035
:100A300070474FF0010070474FEA410212F5001273
:100A400015D211D56FF47873B3EB625212D94FEA15
:100A5000C12343F0004343EA505311F0004F23FAFF
:100A600002F018BF404270474FF00000704750EA54
:100A7000013005D111F0004008BF6FF00040704711
:100A80004FF00000704700BF4A0011D212F500126B
:100A900011D20DD56FF47873B3EB62520ED44FEAD6
:100AA000C12343F0004343EA505323FA02F0704756
:100AB0004FF00000704750EA013002D14FF0FF3094
:100AC00070474FF0000070474FEA4102B2F1E04337
:100AD00024BFB3F5001CDCF1FE5C0DD901F0004C25
:100AE0004FEAC0024CEA5070B2F1004F40EB830075
:100AF00008BF20F00100704711F0804F21D113F1A1
:100B00003872BCBF01F00040704741F480114FEAD9
:100B10005252C2F11802C2F1200C10FA0CF320FA62
:100B200002F018BF40F001004FEAC1234FEAD3237F
:100B300003FA0CFC40EA0C0023FA02F34FEA4303E9
:100B4000CCE77FEA625307D150EA01331EBF4FF072
:100B5000FE4040F44000704701F0004040F0FE408D
:100B600040F40000704700BF80F0004002E000BF8A
:100B700081F0004142001FBF5FEA410392EA030F88
:100B80007FEA226C7FEA236C6AD04FEA1262D2EBD2
:100B90001363C1BFD218414048404140B8BF5B42D7
:100BA000192B88BF704710F0004F40F4000020F070
:100BB0007F4018BF404211F0004F41F4000121F086
:100BC0007F4118BF494292EA030F3FD0A2F10102D0
:100BD00041FA03FC10EB0C00C3F1200301FA03F10E
:100BE00000F0004302D5494260EB4000B0F5000F31
:100BF00013D3B0F1807F06D340084FEA310102F1F0
:100C00000102FE2A51D2B1F1004F40EBC25008BFA1
:100C100020F0010040EA03007047490040EB00006B
:100C2000013A28BFB0F5000FEDD2B0FA80FCACF16C
:100C3000080CB2EB0C0200FA0CF0AABF00EBC25099
:100C400052421843BCBFD0401843704792F0000F87
:100C500081F4000106BF80F400000132013BB5E7DA
:100C60004FEA41037FEA226C18BF7FEA236C21D050
:100C700092EA030F04D092F0000F08BF08467047B5
:100C800090EA010F1CBF0020704712F07F4F04D183
:100C9000400028BF40F00040704712F100723CBF96
:100CA00000F50000704700F0004343F0FE4040F4C0
:100CB000000070477FEA226216BF08467FEA23637E
:100CC0000146420206BF5FEA412390EA010F40F469
:100CD000800070474FF0000304E000BF10F00043B5
:100CE00048BF40425FEA000C08BF704743F096439C
:100CF00001464FF000001CE050EA010208BF7047B7
:100D00004FF000030AE000BF50EA010208BF70473D
:100D100011F0004302D5404261EB41015FEA010C52
:100D200002BF84460146002043F0B64308BFA3F14A
:100D30008053A3F50003BCFA8CF2083AA3EBC2532C
:100D400010DB01FA02FC634400FA02FCC2F120024B
:100D5000BCF1004F20FA02F243EB020008BF20F082
:100D60000100704702F1200201FA02FCC2F12002E8
:100D700050EA4C0021FA02F243EB020008BF20EADD
:100D8000DC7070474FF0FF0C1CEAD0521EBF1CEA0B
:100D9000D15392EA0C0F93EA0C0F6FD01A4480EAF9
:100DA000010C400218BF5FEA41211ED04FF00063E2
:100DB00043EA501043EA5111A0FB01310CF000400E
:100DC000B1F5000F3EBF490041EAD3715B0040EA34
:100DD000010062F17F02FD2A1DD8B3F1004F40EB04
:100DE000C25008BF20F00100704790F0000F0CF0D7
:100DF000004C08BF49024CEA502040EA51207F3A9B
:100E0000C2BFD2F1FF0340EAC250704740F4000075
:100E10004FF00003013A5DDC12F1190FDCBF00F066
:100E200000407047C2F10002410021FA02F1C2F114
:100E3000200200FA02FC5FEA310040F1000053EAB0
:100E40004C0308BF20EADC70704792F0000F00F0FE
:100E5000004C02BF400010F4000F013AF9D040EA04
:100E60000C0093F0000F01F0004C02BF490011F498
:100E7000000F013BF9D041EA0C018FE70CEAD15396
:100E800092EA0C0F18BF93EA0C0F0AD030F0004C16
:100E900018BF31F0004CD8D180EA010000F00040CA
:100EA000704790F0000F17BF90F0004F084691F088
:100EB000000F91F0004F14D092EA0C0F01D14202C2
:100EC0000FD193EA0C0F03D14B0218BF084608D18B
:100ED00080EA010000F0004040F0FE4040F40000D5
:100EE000704740F0FE4040F4400070474FF0FF0C68
:100EF0001CEAD0521EBF1CEAD15392EA0C0F93EAAF
:100F00000C0F69D0A2EB030280EA010C49024FEA00
:100F1000402037D04FF0805343EA111143EA1013B9
:100F20000CF000408B4238BF5B0042F17D024FF471
:100F3000000C8B4224BF5B1A40EA0C00B3EB510F4C
:100F400024BFA3EB510340EA5C00B3EB910F24BF35
:100F5000A3EB910340EA9C00B3EBD10F24BFA3EBBA
:100F6000D10340EADC001B0118BF5FEA1C1CE0D182
:100F7000FD2A3FF650AF8B4240EBC25008BF20F035
:100F8000010070470CF0004C4CEA50207F32C2BF89
:100F9000D2F1FF0340EAC250704740F400004FF026
:100FA0000003013A37E792F0000F00F0004C02BF57
:100FB000400010F4000F013AF9D040EA0C0093F021
:100FC000000F01F0004C02BF490011F4000F013B7B
:100FD000F9D041EA0C0195E70CEAD15392EA0C0FE3
:100FE00008D142027FF47DAF93EA0C0F7FF470AF1B
:100FF000084676E793EA0C0F04D14B023FF44CAF5E
:1010000008466EE730F0004C18BF31F0004CCAD1F2
:1010100030F000427FF45CAF31F000437FF43CAF2E
:101020005FE700BF4FF0FF3C06E000BF4FF0010C50
:1010300002E000BF4FF0010C4DF804CD4FEA400232
:101040004FEA41037FEA226C18BF7FEA236C11D07C
:1010500001B052EA530C18BF90EA010F58BFB2EB2F
:10106000030088BFC81738BF6FEAE17018BF40F0AF
:10107000010070477FEA226C02D15FEA402C05D163
:101080007FEA236CE4D15FEA412CE1D05DF8040BE8
:10109000704700BF844608466146FFE70FB5FFF77B
:1010A000C9FF002848BF10F1000F0FBD4DF808ED33
:1010B000FFF7F4FF0CBF012000205DF808FB00BF24
:1010C0004DF808EDFFF7EAFF34BF012000205DF87E
:1010D00008FB00BF4DF808EDFFF7E0FF94BF0120CB
:1010E00000205DF808FB00BF4DF808EDFFF7D2FFC8
:1010F00094BF012000205DF808FB00BF4DF808ED0B
:10110000FFF7C8FF34BF012000205DF808FB00BFD7
:101110004FEA4002B2F1FE4F0FD34FF09E03B3EB04
:1011200012620DD94FEA002343F0004310F0004F44
:1011300023FA02F018BF404270474FF0000070479A
:1011400012F1610F01D1420205D110F0004008BF39
:101150006FF0004070474FF00000704738B505460B
:101160000C460022002328462146FFF727FC28B919
:1011700028462146BDE8384000F00AB8284604F168
:10118000004100F005F8404261EB410138BD00BF6D
:10119000D0B500220B4B06460F46FFF79DF9FFF72F
:1011A00073FC0446FFF71EF90022074BFFF794F982
:1011B00002460B4630463946FEF7D6FFFFF764FC81
:1011C0002146D0BD0000F03D0000F04180B582B066
:1011D00000AF78607B681B68124A93421ED1124BA5
:1011E0001B780D2B0BD0114B1B785A1CD1B20F4A18
:1011F00011701A460C4B19780D4B995409E00A4BA3
:101200001B780D2B05D1094B00221A70094B0122C6
:101210001A8001220449084804F0F9FD00BF08378C
:10122000BD4680BD003801408A0300208B030020AA
:10123000580300208C0300200803002080B582B0F2
:1012400000AFA949A94807F0F7F978600023FB70BF
:101250000FE0FB78A6497A6841F82320FB78013338
:10126000FB707B6801337B609F49002007F0E4F945
:1012700078607B68002BECD19D4B1B684D21184694
:1012800007F0BBF90346002B3CD0994B5B689949AA
:10129000184607F02DFA0346002B15D0964B012275
:1012A0001A70954B1B781A469449954807F03AF9FD
:1012B0009348FEF74DFF03469AB24FF0FF33904933
:1012C000904804F021FD1DE0894B5B688E4918466B
:1012D00007F00EFA0346002B14D0874B00221A7039
:1012E000854B1B781A468549854807F01BF98448C9
:1012F000FEF72EFF03469AB24FF0FF338049814834
:1013000004F002FD7A4B1B688049184607F0F0F99B
:101310000346002B12D07E4B01221A707D4978487B
:1013200007F000F97648FEF713FF03469AB24FF034
:10133000FF337349734804F0E7FC62E06C4B1B68B1
:101340007549184607F0D4F90346002B12D0704BAC
:1013500002221A7071496A4807F0E4F86848FEF7FB
:10136000F7FE03469AB24FF0FF336549654804F033
:10137000CBFC46E05E4B1B686949184607F0B8F99C
:101380000346002B12D0624B03221A7065495C4859
:1013900007F0C8F85A48FEF7DBFE03469AB24FF052
:1013A000FF335749574804F0AFFC2AE0504B1B6805
:1013B0005D49184607F09CF90346002B12D0544BA8
:1013C00004221A7059494E4807F0ACF84C48FEF711
:1013D000BFFE03469AB24FF0FF334949494804F033
:1013E00093FC0EE05249464807F09CF84448FEF74B
:1013F000AFFE03469AB24FF0FF334149414804F033
:1014000083FC434B1B781A464A493D4807F08AF84B
:101410003B48FEF79DFE03469AB24FF0FF33384932
:10142000384804F071FC3A4B1B78013B032B00F267
:10143000D18001A252F823F0491400089914000841
:101440004915000899150008294B5B68184605F0F6
:1014500083FA02460B4610461946FFF735FB034652
:10146000354A1360344B1B681846FEF7DDFF024611
:101470000B463249224807F055F82148FEF768FE2E
:1014800003469AB24FF0FF331D491E4804F03CFC5E
:101490001F4B00221A709DE0154B5B68184605F043
:1014A0005BFA02460B4610461946FFF70DFB034652
:1014B000234A1360224B1B681846FEF7B5FF02460D
:1014C0000B4620490E4807F02DF80D48FEF740FE68
:1014D00003469AB24FF0FF3309490A4804F014FC5E
:1014E0000B4B00221A7075E010B200085803002060
:1014F000C403002014B200088C0400201CB20008B1
:10150000900300200803002028B2000830B2000831
:101510008E03002034B2000840B2000844B2000834
:1015200050B2000854B2000860B2000868B2000867
:1015300078B2000884B200089004002094B2000839
:1015400094040020A4B20008244B5B68184605F000
:1015500003FA02460B4610461946FFF7B5FA034652
:101560001F4A13601E4B1B681846FEF75DFF0246BC
:101570000B461C491C4806F0D5FF1B48FEF7E8FD4A
:1015800003469AB24FF0FF331749184804F0BCFBEA
:10159000174B00221A701DE0104B5B68184605F0CF
:1015A000DEF90346134A1360124B1B681A461249B0
:1015B0000D4806F0B7FF0C48FEF7CAFD03469AB285
:1015C0004FF0FF330849094804F09EFB084B002206
:1015D0001A7000BF00BF0837BD4680BDC40300209D
:1015E00098040020B4B200089003002008030020F3
:1015F0008E0300209C040020C4B2000880B483B095
:1016000000AF786039607B68002B06DA104A7B688F
:1016100053630F4B00229A6305E00D4B00225A637F
:101620000B4A7B6893633B68002B06DA084B002269
:101630001A64074A3B68D36305E0054A3B681364B4
:10164000034B0022DA6300BF0C37BD4680BC7047F5
:101650000008004080B58CB000AFF860B9607A60D7
:101660007B80F868FEF7E0FE02460B4607F1280093
:10167000324906F057FFB868FEF7D6FE02460B4621
:1016800007F120002D4906F04DFF7868FEF7CCFEEB
:1016900002460B4607F11800284906F043FF7A88F6
:1016A00007F110032649184606F03CFF14214B2091
:1016B00001F006F8234A012306CA234800F0DAFFA6
:1016C000204A07F12800012306CA00F0D3FF1E219B
:1016D0004B2000F0F5FF1B4A012306CA1B4800F00F
:1016E000C9FF184A07F12000012306CA00F0C2FF13
:1016F00028214B2000F0E4FF124A012306CA1448B7
:1017000000F0B8FF0F4A07F11800012306CA00F0E5
:10171000B1FF32214B2000F0D3FF0A4A012306CA51
:101720000C4800F0A7FF074A07F11000012306CA82
:1017300000F0A0FF00BF3037BD4680BDD4B2000826
:10174000DCB2000834000020E0B20008E4B2000877
:10175000E8B20008ECB2000880B586B002AF884855
:1017600001F056FD03461846FFF7B4FA0346184643
:10177000FEF75AFE7AA3D3E90023FEF7ADFE024638
:101780000B46104619464FF000027E4BFEF7A4FEB2
:1017900002460B46104619464FF000027A4BFEF700
:1017A000C5FF02460B4610461946FFF78DF9034662
:1017B000764A1360754B1B681846FEF735FE0246E5
:1017C0000B46381D724906F0ADFE704B1B6818467B
:1017D000FEF72AFE64A3D3E90023FFF7F9F80346D6
:1017E000002B19D001230193192300931923694A6F
:1017F0001121022000F0E8FF012301931023009340
:101800001023654A0121732000F0DEFF012202212E
:10181000624802F0C8FA8EE05C4B1B6860491846CB
:10182000FFF758FC0346002B26D0584B1B68184680
:10183000FEF7FAFD4CA3D3E90023FFF7D3F80346E4
:10184000002B19D001230193192300931923554A22
:101850001121022000F0B8FF01230193102300930F
:1018600010234D4A0121732000F0AEFF0022022117
:101870004A4802F098FA5EE0444B1B681846FEF7AF
:10188000D3FD3BA3D3E90023FFF7A2F80346002BC7
:1018900018D03E4B1B6842491846FFF725FC03460B
:1018A000002B0FD0012301931923009319233E4AE3
:1018B0001121022000F088FF00220221374802F0A7
:1018C00072FA38E0314B1B681846FEF7ADFD2AA3CB
:1018D000D3E90023FFF77CF80346002B1CD02B4BE9
:1018E0001B681846FEF7A0FD21A3D3E90023FFF7EC
:1018F00079F80346002B0FD001230193192300939D
:1019000019232A4A1121022000F05EFF0022022141
:10191000224802F048FA0EE00123019319230093B4
:101920001923234A1121022000F04EFF0022022138
:101930001A4802F038FA15211E2000F0C1FE1D4A97
:10194000381D012306CA00F095FE1B4A012306CA72
:101950001A4800F08FFE00BF1037BD4680BD00BFA3
:101960006666666666660A409A99999999992540CD
:101970006666666666662740CDCCCCCCCC4C2840EB
:101980003C020020000010400000B0405003002046
:10199000F0B200088CB40008B0B50008000C01409B
:1019A0000000344128B40008C4B3000860B3000844
:1019B000FCB20008440000203C000020F8B20008FF
:1019C00080B582B002AF0123009311238022112140
:1019D000012000F08DFE01230093402346221221B6
:1019E000462000F085FE012300932923452229216A
:1019F000012000F07DFE00BFBD4680BD80B582B0F5
:101A000002AF01230193102300935A23034A0121BB
:101A1000012000F0D9FE00BFBD4680BDF0B4000833
:101A200080B582B002AF012301930A2300930A23F9
:101A3000034A04216B2000F0C7FE00BFBD4680BDF5
:101A4000D0B5000880B586B002AFF860B9607A60A2
:101A50007B808021154802F08FF903461A46144B0B
:101A60001A70002000F0ECFCFFF7C8FFFFF7A8FF9A
:101A70000F4B1B781846FFF7D3FFFFF76DFE0123CE
:101A800001931A2300933B230A4A2821012000F0E6
:101A90009BFE7B887A68B968F868FFF7DBFD00F089
:101AA000E7FC00BF1037BD4680BD00BF0008014005
:101AB00056030020E4B5000880B400AF174B9B68C4
:101AC0009BB203F001039AB2154B1A80134B9B682B
:101AD0005B089BB203F001039AB2114B5A800F4B83
:101AE0009B689B089BB203F001039AB20C4B9A804F
:101AF0000A4B9B68DB089BB203F001039AB2084BC8
:101B0000DA80064B9B681B099BB203F001039AB273
:101B1000034B1A8100BFBD4680BC704700080140DE
:101B2000A404002080B485B000AF78600023FB815E
:101B300000237B7301233B731EE03B7B03F10043D7
:101B4000013B5B007A6813441B88002B11D17B7B1F
:101B500001337B733B7B9BB21A46920013441A46B7
:101B600091001A460B4613449B009AB2FB8913441A
:101B7000FB813B7B01333B733B7B052BDDD97B7BBF
:101B8000002B0CD07B7B042B09D8FA897B7B92FB42
:101B9000F3F39AB20E4B1A800D4B1B8813E07B7B3C
:101BA000052B02D14FF496730DE0094B1B88C72B10
:101BB00007D8074B1B88B3F5C87F02D24FF4967342
:101BC00001E0034B1B8818461437BD4680BC7047A4
:101BD000AE04002090B58BB000AFF860B9607A60B9
:101BE0007B804FF000037B624FF000033B624FF0BD
:101BF0000003FB6100237B8300233B833B8FC3F502
:101C000096737B617869FFF769F803461946F868AF
:101C1000FFF7B8F803467B624D4B1B687A69D31A0D
:101C20001846FFF75BF8034679681846FFF7AAF8ED
:101C3000034648491846FFF759F903463B62444AB0
:101C40007B6913607B6913F1630F17DB7B69632B7F
:101C500014DC7869FFF742F80346B9681846FFF7C5
:101C600091F803461A463C4B1B6819461046FEF78E
:101C700081FF03461A46384B1A6002E04FF000031A
:101C8000BB60354B1B68796A1846FEF773FF034645
:101C90001946386AFEF76EFF0346FB617B881846DB
:101CA000FFF71CF804464FF00001F869FFF726FA29
:101CB0000346002B01D0FB6902E0FB6983F000437F
:101CC00021461846FEF756FF03461846FFF720FA4E
:101CD00003467B837B881846FFF700F804464FF0E5
:101CE0000001F869FFF70AFA0346002B01D0FB69EF
:101CF00002E0FB6983F0004319462046FEF738FFF7
:101D000003461846FFF704FA03463B837B69002B22
:101D100008DDB7F91830B7F91A2011461846FFF751
:101D20006DFC11E07B69002B08DAB7F91A30B7F9BE
:101D3000182011461846FFF761FC05E07B887A8879
:101D400011461846FFF75AFC00BF2C37BD4690BD20
:101D5000B00400200000A040B404002080B584B08E
:101D600002AF01F041F800F0ABF800F02DFA00F0FE
:101D70003BF900F0FBF800F065F900F0FBF944488E
:101D800001F090F90021434803F040FA0421414852
:101D900003F03CFA08213F4803F038FA0C213D4893
:101DA00003F034FA00F0E2FA4FF4E1733A4A4FF0EC
:101DB00000013A48FFF746FE642332223849394889
:101DC00003F0A2FF01223849364804F020F8374BCF
:101DD0001B88002B4BD000237B600BE0344A7B68D0
:101DE000134419782E4A7B6813440A461A707B689C
:101DF00001337B607B68312BF0DDFFF71FFA2B4B43
:101E000000221A8033E0FFF757FE2A48FFF78AFEC8
:101E100003461A46284B1A80274B1B8800934FF421
:101E2000E1731D4A4FF000011C48FFF7D3FE012269
:101E30001D491C4803F0EBFF1C4B1B88002B16D0E0
:101E400000233B600BE01A4A3B6813441978144A9C
:101E50003B6813440A461A703B6801333B603B6899
:101E6000312BF0DDFFF7EAF9104B00221A80134BFB
:101E70001B78012BC7D00023009300234FF00002F2
:101E80004FF000014FF00000FFF7A4FE9AE700BFFB
:101E90003C020020C0020020000048425C8F8A40C3
:101EA00000000020080300208A0300208C0300208B
:101EB00058030020A4040020A00400208C0400206B
:101EC00080B594B000AF07F12803282200211846FE
:101ED00006F08BFB07F1140300221A605A609A6027
:101EE000DA601A613B1D00221A605A609A60DA605B
:101EF0000223BB620123BB631023FB6302237B64C9
:101F00000023BB644FF40023FB6407F12803184649
:101F100002F00EFC0346002B01D000F0E9F90F237C
:101F20007B610223BB610023FB6100233B62002332
:101F30007B6207F114030021184602F07BFE034682
:101F4000002B01D000F0D4F902237B600023FB605A
:101F50003B1D184602F0FCFF0346002B01D000F0A9
:101F6000C7F900BF5037BD4680BD000080B584B0C2
:101F700000AF3B1D00221A605A609A60184B194A44
:101F80001A60174B00229A60154B01221A73144BEA
:101F900000221A75124B4FF46022DA61104B0022B6
:101FA0005A600F4B01221A610D4800F0A3FF03464F
:101FB000002B01D000F09CF908237B600123BB605B
:101FC0000723FB603B1D1946054801F0F5F9034660
:101FD000002B01D000F08CF900BF1037BD4680BD4A
:101FE0003C0200200024014080B500AF124B134A90
:101FF0001A60114B124A5A600F4B00229A600E4B26
:102000000022DA600C4B4FF480421A610A4B002226
:102010005A61094B00229A61074B0022DA61064B94
:1020200000221A62044801F0D7FE0346002B01D0BB
:1020300000F05EF900BF80BD6C0200200058004037
:10204000A086010080B58EB000AF07F12803002202
:102050001A605A609A60DA6007F1200300221A6061
:102060005A603B1D00221A605A609A60DA601A6159
:102070005A619A613D4B3E4A1A603C4B9F225A601E
:102080003A4B00229A60394B40F2E732DA60374B24
:1020900000221A61354B80229A61344803F00EF811
:1020A0000346002B01D000F023F94FF48053BB62AC
:1020B00007F1280319462D4803F00CFA0346002BBC
:1020C00001D000F015F9294803F047F80346002B2A
:1020D00001D000F00DF900233B6200237B6207F181
:1020E00020031946214803F061FD0346002B01D06F
:1020F00000F0FEF860237B600023BB600023FB60E0
:1021000000237B613B1D00221946184803F020F98B
:102110000346002B01D000F0EBF83B1D04221946CA
:10212000124803F015F90346002B01D000F0E0F847
:102130003B1D082219460D4803F00AF90346002BFF
:1021400001D000F0D5F83B1D0C221946074803F0DA
:10215000FFF80346002B01D000F0CAF8034800F056
:1021600093FC00BF3837BD4680BD00BFC0020020D1
:102170000008004080B500AF114B124A1A60104BA6
:102180004FF416525A600E4B00229A600C4B0022FC
:10219000DA600B4B00221A61094B0C225A61084B82
:1021A00000229A61064B0022DA61054803F05CFDCB
:1021B0000346002B01D000F09BF800BF80BD00BF9C
:1021C000080300200038014080B588B000AF07F157
:1021D000100300221A605A609A60DA60334B9B69E0
:1021E000324A43F010039361304B9B6903F01003B4
:1021F000FB60FB682D4B9B692C4A43F020039361E5
:102200002A4B9B6903F02003BB60BB68274B9B698B
:10221000264A43F004039361244B9B6903F00403B3
:102220007B607B68214B9B69204A43F008039361E4
:102230001E4B9B6903F008033B603B6800224FF490
:1022400000511B4801F0AFFD00220221194801F0A6
:10225000AAFD4FF400533B6101237B610023BB6166
:102260000223FB6107F110031946114801F000FC3D
:10227000BF233B6100237B610023BB6107F1100397
:1022800019460D4801F0F4FB02233B6101237B61F9
:102290000023BB610223FB6107F1100319460548C7
:1022A00001F0E6FB00BF2037BD4680BD00100240B4
:1022B00000100140000C01400008014080B582B0D0
:1022C00000AF78607B681A68074B1B689A4206D19A
:1022D000054800F09DFF03469AB2044B1A8000BFE8
:1022E0000837BD4680BD00BF3C02002054030020DB
:1022F00080B400AF72B600BFFEE780B400AF00BF8D
:10230000BD4680BC7047000080B586B004AF034670
:10231000FB714FF0FF33029301230193FB1D0093E8
:10232000012300227821034801F09AFE00BF0837FC
:10233000BD4680BD6C02002080B586B004AF7860D9
:1023400039603B689BB24FF0FF32029201937B6889
:102350000093012340227821034801F081FE00BF51
:102360000837BD4680BD00BF6C02002080B500AFBD
:10237000FFF7C3FF052000F099FD002000F092FA5E
:102380002020FFF7C1FF0020FFF7BEFFB020FFF7BE
:10239000BBFFC820FFF7B8FF0020FFF7B5FF1020F4
:1023A000FFF7B2FF4020FFF7AFFFFF2000F067FA12
:1023B000A120FFF7A9FFA620FFF7A6FFA820FFF79F
:1023C000A3FF3F20FFF7A0FFA420FFF79DFFD3202E
:1023D000FFF79AFF0020FFF797FFD520FFF794FF44
:1023E000F020FFF791FFD920FFF78EFF2220FFF7A3
:1023F0008BFFDA20FFF788FF1220FFF785FFDB2035
:10240000FFF782FF2020FFF77FFF8D20FFF77CFF83
:102410001420FFF779FF012000F044FA002000F0BB
:102420000FF800F025F8054B00221A80034B00221C
:102430005A80024B01221A7100BF80BDB8080020EB
:1024400080B582B000AF0346FB71FB79002B01D150
:10245000002300E0FF234FF480621946034806F092
:10246000C4F800BF0837BD4680BD00BFB8040020D7
:1024700080B582B000AF0023FB7116E0FB79503BC2
:10248000DBB21846FFF740FF0020FFF73DFF1020AA
:10249000FFF73AFFFB79DB01084A13448021184615
:1024A000FFF74AFFFB790133FB71FB79072BE5D975
:1024B00000BF00BF0837BD4680BD00BFB804002084
:1024C00080B483B000AF0346FB710B46BB7113466B
:1024D0007B7197F90730002B3DDBBB793F2B3AD856
:1024E0007B79012B1AD1FA79BB79DB08D8B2034684
:1024F000DB0113441A4AD35C5AB2BB7903F00703D9
:10250000012101FA03F35BB2134359B2FA7903468E
:10251000DB011344C9B2124AD1541DE0FA79BB79E8
:10252000DB08D8B20346DB0113440D4AD35C5AB230
:10253000BB7903F00703012101FA03F35BB2DB432C
:102540005BB2134059B2FA790346DB011344C9B2B6
:10255000034AD15400E000BF0C37BD4680BC704731
:10256000B804002090B589B000AF0446381D80E85B
:1025700006001A462346FB731346BB73FB7B1F2BD7
:1025800002D9FB7B7E2B01D900236DE0384B1B88E1
:102590001A463B791344802B06DC354B5B881A4680
:1025A0007B791344402B01DD00235DE00023FB61B8
:1025B0004CE0BA68FB7B203B797901FB03F31946B9
:1025C000FB690B445B0013441B887B610023BB61E8
:1025D00034E07A69BB6902FA03F303F40043002B89
:1025E00012D0234B1B88DAB2BB69DBB21344D8B2DA
:1025F0001F4B5B88DAB2FB69DBB21344DBB2BA7BF8
:102600001946FFF75DFF16E0194B1B88DAB2BB696C
:10261000DBB21344D8B2164B5B88DAB2FB69DBB28B
:102620001344D9B2BB7B002B0CBF01230023DBB2C8
:102630001A46FFF745FFBB690133BB613B791A4678
:10264000BB699342C5D3FB690133FB617B791A46B1
:10265000FB699342ADD3064B1A883B799BB2134476
:102660009AB2034B1A80FB7B18462437BD4690BDB7
:10267000B808002080B584B000AFF860381D80E84D
:102680000600FB7012E0FB681878FB783A1D06CA5A
:10269000FFF768FF03461A46FB681B789A4202D090
:1026A000FB681B7808E0FB680133FB60FB681B7864
:1026B000002BE8D1FB681B7818461037BD4680BD5B
:1026C00080B483B000AF03460A46FB711346BB716A
:1026D000FB799AB2054B1A80BB799AB2034B5A80A8
:1026E00000BF0C37BD4680BC704700BFB808002053
:1026F00090B589B000AF0446084611461A462346F5
:10270000FB710346BB710B467B7113463B717A79B3
:10271000FB79D31A002BB8BF5B42BB613A79BB7916
:10272000D31A002BB8BF5B427B61FA797B799A425E
:1027300001D2012301E04FF0FF333B61BA793B79CD
:102740009A4201D2012301E04FF0FF33FB60BA69E6
:102750007B69D31AFB6197F8302039797B79184669
:10276000FFF7AEFE24E097F83020B979FB791846E0
:10277000FFF7A6FEFB695B00BB607B695B42BA6842
:102780009A4208DDFA697B69D31AFB613B69DAB2C8
:10279000FB791344FB71BA68BB699A4208DAFA699B
:1027A000BB691344FB61FB68DAB2BB791344BB71AC
:1027B000FA797B799A42D6D1BA793B799A42D2D1C9
:1027C00000BF2437BD4690BD80B584B000AF3A60ED
:1027D0001A460346FB710B46BB7113467B717B792E
:1027E0000733002B00DA0733DB107B810023FB73F8
:1027F00097F90730002B3EDBBB793F2B3BD80023FA
:10280000BB7333E000237B7326E07B7B03F007037D
:10281000002B03D0FB7B5B00FB730DE0BB7BB7F9A8
:102820000A2002FB03F37A7BD208D2B213441A4681
:102830003B6813441B78FB7397F90F30002B08DAC1
:10284000FA797B7B1344DBB23A7FB9791846FFF7FC
:1028500037FE7B7B01337B737A7B7B799A42D4D3BF
:10286000BB7B0133BB73BB790133BB71BA7B3B7E4E
:102870009A42C7D300E000BF1037BD4680BD80B587
:1028800084B000AF0346FB718123FB73FB7B1846CA
:10289000FFF73AFDFB791846FFF736FD00BF10370A
:1028A000BD4680BD80B584B000AF0346FB71FB79A7
:1028B000002B05D0AF23FB73084B01225A7104E0B3
:1028C000AE23FB73054B00225A71FB7B1846FFF7C2
:1028D0001BFD00BF1037BD4680BD00BFB8080020FB
:1028E00080B485B000AF154B9B69144A43F00103D7
:1028F0009361124B9B6903F00103BB60BB680F4BF4
:10290000DB690E4A43F08053D3610C4BDB6903F063
:1029100080537B607B680A4B5B68FB60FB6823F03D
:10292000E063FB60FB6843F00073FB60044AFB68F4
:10293000536000BF1437BD4680BC70470010024092
:102940000000014080B588B000AF786007F1100347
:1029500000221A605A609A60DA607B681B68184A25
:10296000934229D1174B9B69164A43F40073936134
:10297000144B9B6903F40073FB60FB68114B9B696C
:10298000104A43F0080393610E4B9B6903F0080360
:10299000BB60BB6801233B6103237B6107F110032C
:1029A0001946094801F064F800220E21122000F0B7
:1029B00076FF122000F08FFF00BF2037BD4680BD9C
:1029C0000024014000100240000C014080B588B096
:1029D00000AF786007F1100300221A605A609A6015
:1029E000DA607B681B68164A934224D1154B9B69B9
:1029F000144A43F008039361124B9B6903F00803E8
:102A0000FB60FB684FF440633B6112237B6103234F
:102A1000FB6107F1100319460B4801F029F8094B37
:102A2000DB69084A43F48003D361064BDB6903F496
:102A30008003BB60BB6800BF2037BD4680BD00BFC0
:102A40000058004000100240000C014080B485B0E6
:102A500000AF78607B681B68094A93420BD1094B31
:102A6000DB69084A43F00403D361064BDB6903F0DA
:102A70000403FB60FB6800BF1437BD4680BC704791
:102A8000000800400010024080B588B000AF7860B8
:102A900007F1100300221A605A609A60DA607B68BE
:102AA0001B68104A934218D10F4B9B690E4A43F0A2
:102AB000080393610C4B9B6903F00803FB60FB6800
:102AC0004FF470733B6102237B610223FB6107F1CA
:102AD00010031946054800F0CBFF00BF2037BD4664
:102AE00080BD00BF0008004000100240000C014003
:102AF00080B588B000AF786007F1100300221A603B
:102B00005A609A60DA607B681B68204A934239D128
:102B10001F4B9B691E4A43F4804393611C4B9B6986
:102B200003F48043FB60FB68194B9B69184A43F030
:102B300004039361164B9B6903F00403BB60BB68FD
:102B40004FF400733B6102237B610323FB6107F1B8
:102B5000100319460F4800F08BFF4FF480633B6170
:102B600000237B610023BB6107F11003194609486C
:102B700000F07EFF00220521252000F090FE252098
:102B800000F0A9FE00BF2037BD4680BD00380140DF
:102B9000001002400008014080B400AFFEE780B49E
:102BA00000AFFEE780B400AFFEE780B400AFFEE701
:102BB00080B400AFFEE780B400AF00BFBD4680BC6C
:102BC000704780B400AF00BFBD4680BC704780B482
:102BD00000AF00BFBD4680BC704780B500AF00F0BD
:102BE00049F900BF80BD000080B500AF024800F089
:102BF0001BFB00BF80BD00BF3C02002080B500AFC2
:102C0000024803F029F900BF80BD00BF080300207F
:102C100080B400AF01231846BD4680BC704780B524
:102C200082B000AF7860396005F0C2FD034616221D
:102C30001A604FF0FF3318460837BD4680BD80B597
:102C400082B000AF78604FF0FF317868FFF7E7FFA0
:102C5000FEE780B586B000AFF860B9607A60002307
:102C60007B610AE0AFF300800146BB685A1CBA6082
:102C7000CAB21A707B6901337B617A697B689A42B8
:102C8000F0DB7B6818461837BD4680BD80B586B03E
:102C900000AFF860B9607A6000237B6109E0BB682F
:102CA0005A1CBA601B781846AFF300807B69013369
:102CB0007B617A697B689A42F1DB7B68184618373A
:102CC000BD4680BD80B483B000AF78604FF0FF3365
:102CD00018460C37BD4680BC704780B483B000AF47
:102CE000786039603B684FF400525A600023184600
:102CF0000C37BD4680BC704780B483B000AF7860AD
:102D0000012318460C37BD4680BC704780B485B09F
:102D100000AFF860B9607A60002318461437BD46EA
:102D200080BC704780B586B000AF7860144A154B00
:102D3000D31A7B617B693B61134B1B68002B02D16B
:102D4000114B124A1A60104B1A687B6813443A6997
:102D50009A4207D205F02CFD03460C221A604FF070
:102D6000FF3309E0084B1B68FB60074B1A687B6860
:102D70001344054A1360FB6818461837BD4680BDEA
:102D80000050002000040000C0080020180A0020A5
:102D900080B400AF00BFBD4680BC7047FFF7F8FFAE
:102DA0000B480C490C4A002302E0D458C4500433A9
:102DB000C4188C42F9D3094A094C002301E013607E
:102DC0000432A242FBD305F0F9FCFEF7C7FF7047BF
:102DD000000000202002002020D600082002002051
:102DE000140A0020FEE7000080B500AF084B1B6806
:102DF000074A43F010031360032000F045FD0F2045
:102E000000F008F8FFF76CFD0023184680BD00BFF6
:102E10000020024080B582B000AF7860124B1A6883
:102E2000124B1B7819464FF47A73B3FBF1F3B2FBE4
:102E3000F3F3184600F05DFD0346002B01D001239B
:102E40000EE07B680F2B0AD8002279684FF0FF3024
:102E500000F025FD064A7B681360002300E0012393
:102E600018460837BD4680BD4C00002054000020A5
:102E70005000002080B400AF054B1B781A46054B6C
:102E80001B681344034A136000BFBD4680BC7047F3
:102E900054000020C408002080B400AF024B1B681F
:102EA0001846BD4680BC7047C408002080B584B079
:102EB00000AF7860FFF7F0FFB8607B68FB60FB68ED
:102EC000B3F1FF3F05D00A4B1B781A46FB68134449
:102ED000FB6000BFFFF7E0FF0246BB68D31AFA6849
:102EE0009A42F7D800BF00BF1037BD4680BD00BF73
:102EF0005400002080B586B000AF78600023FB75D9
:102F000000233B610023BB600023FB607B68002B38
:102F100001D10123BEE07B689B68002B7B689B6A24
:102F2000002B09D17B680022DA627B68002283F8DB
:102F300024207868FFF706FD786800F08FFB0346D1
:102F4000FB757B689B6A03F01003002B40F09980AF
:102F5000FB7D002B40F095807B689B6A23F48853AF
:102F600023F0020343F002027B689A627B685A688E
:102F70007B68DB691A437B681B7B5B001343BA6881
:102F80001343BB607B689B68B3F5807F03D07B688D
:102F90009B68012B02D14FF4807300E000233A6953
:102FA00013433B617B681B7D012B19D17B681B7B25
:102FB000002B09D17B689B69013B5A033B69134392
:102FC00043F400633B610BE07B689B6A43F02002A3
:102FD0007B689A627B68DB6A43F001027B68DA6295
:102FE0007B681B685B6823F469417B681B683A69EE
:102FF0000A435A607B681B689A68284B13407A68BA
:103000001268B9680B4393607B689B68B3F5807F57
:1030100003D07B689B68012B04D17B681B69013B53
:103020001B05FB607B681B68DB6A23F470017B680F
:103030001B68FA680A43DA627B681B689A68184B57
:103040001340BA689A420BD17B680022DA627B682F
:103050009B6A23F0030343F001027B689A6218E045
:103060007B689B6A23F0120343F010027B689A622C
:103070007B68DB6A43F001027B68DA620123FB753F
:1030800007E07B689B6A43F010027B689A62012329
:10309000FB75FB7D18461837BD4680BDFDF7E1FF87
:1030A000FE0E1FFF80B584B000AF78600023FB7375
:1030B0007B6893F82430012B01D10223A0E07B68C8
:1030C000012283F82420786800F06EFA0346FB732F
:1030D000FB7B002B40F08F807B689B6A23F470633E
:1030E00023F0010343F480727B689A627B681B685B
:1030F000454A934205D1454B5B6803F47023002B8E
:1031000015D17B689B6A23F480127B689A627B6886
:103110001B685B6803F48063002B26D07B689B6A86
:1031200023F4405343F480527B689A621DE07B682D
:103130009B6A43F480127B689A627B681B68334AFF
:10314000934204D07B681B682F4A93420DD12F4BCA
:103150005B6803F48063002B07D07B689B6A23F4D1
:10316000405343F480527B689A627B689B6A03F405
:103170008053002B06D07B68DB6A23F006027B6855
:10318000DA6202E07B680022DA627B68002283F860
:1031900024207B681B686FF002021A607B681B6842
:1031A0005A687B681B6842F020025A607B681B6883
:1031B0009B6803F46023B3F5602F13D17B681B6811
:1031C000114A934205D1114B5B6803F47023002B25
:1031D00008D17B681B689A687B681B6842F4A00270
:1031E0009A600CE07B681B689A687B681B6842F4F5
:1031F00080129A6003E07B68002283F82420FB7B26
:1032000018461037BD4680BD00280140002401400B
:1032100080B483B000AF78607B681B68DB6C1846B5
:103220000C37BD4680BC704780B584B000AF786075
:103230007B681B681B68FB607B681B685B68BB6006
:10324000BB6803F02003002B3ED0FB6803F00203B1
:10325000002B39D07B689B6A03F01003002B05D14B
:103260007B689B6A43F400727B689A627B681B6888
:103270009B6803F46023B3F5602F1DD17B681B7B33
:10328000002B19D17B681B685A687B681B6822F089
:1032900020025A607B689B6A23F480727B689A6282
:1032A0007B689B6A03F48053002B05D17B689B6A83
:1032B00043F001027B689A627868FEF7FFFF7B6843
:1032C0001B686FF012021A60BB6803F08003002BCA
:1032D0004DD0FB6803F00403002B48D07B689B6A49
:1032E00003F01003002B05D17B689B6A43F4005266
:1032F0007B689A627B681B689B6803F4E043B3F5C4
:10330000E04F12D07B681B685B6803F48063002B7E
:1033100025D17B681B689B6803F46023B3F5602F9D
:103320001DD17B681B7B002B19D17B681B685A68F9
:103330007B681B6822F080025A607B689B6A23F4DA
:1033400080527B689A627B689B6A03F48073002BCF
:1033500005D17B689B6A43F001027B689A627868BA
:1033600000F0BDF97B681B686FF00C021A60BB6847
:1033700003F04003002B12D0FB6803F00103002B85
:103380000DD07B689B6A43F480327B689A627868D0
:1033900000F009F87B681B686FF001021A6000BF3B
:1033A0001037BD4680BD80B483B000AF786000BFE9
:1033B0000C37BD4680BC704780B485B000AF7860E4
:1033C00039600023FB730023BB607B6893F82430D3
:1033D000012B01D10223DCE07B68012283F8242049
:1033E0003B685B68062B1CD87B681B68596B3B6885
:1033F0005A6813469B001344053B1F2202FA03F34D
:10340000DB4319403B6818683B685A6813469B00C9
:103410001344053B00FA03F27B681B680A435A63B6
:103420003CE03B685B680C2B1CD87B681B68196B05
:103430003B685A6813469B001344233B1F2202FA41
:1034400003F3DB4319403B6818683B685A6813462E
:103450009B001344233B00FA03F27B681B680A437A
:103460001A631BE07B681B68D96A3B685A6813467D
:103470009B001344413B1F2202FA03F3DB43194034
:103480003B6818683B685A6813469B001344413BED
:1034900000FA03F27B681B680A43DA623B681B6828
:1034A000092B1CD97B681B68D9683B681A681346CE
:1034B0005B0013441E3B072202FA03F3DB4319406F
:1034C0003B6898683B681A6813465B0013441E3BD0
:1034D00000FA03F27B681B680A43DA6019E07B6834
:1034E0001B6819693B681A6813465B00134407227E
:1034F00002FA03F3DB4319403B6898683B681A689B
:1035000013465B00134400FA03F27B681B680A430E
:103510001A613B681B68102B03D03B681B68112B9A
:1035200032D17B681B681D4A934225D17B681B689A
:103530009B6803F40003002B26D17B681B689A6804
:103540007B681B6842F400029A603B681B68102B82
:103550001AD1134B1B68134AA2FB03239A0C134680
:103560009B0013445B00BB6002E0BB68013BBB6097
:10357000BB68002BF9D107E07B689B6A43F020020F
:103580007B689A620123FB737B68002283F8242006
:10359000FB7B18461437BD4680BC704700240140B1
:1035A0004C00002083DE1B4380B584B000AF786000
:1035B0000023FB600023BB607B681B689B6803F0F3
:1035C0000103012B40D07B681B689A687B681B68ED
:1035D00042F001029A601F4B1B681F4AA2FB0323A3
:1035E0009B0CBB6002E0BB68013BBB60BB68002B6F
:1035F000F9D1FFF751FCF8601FE0FFF74DFC0246E0
:10360000FB68D31A022B18D97B681B689B6803F0F0
:103610000103012B11D07B689B6A43F010027B6889
:103620009A627B68DB6A43F001027B68DA627B683E
:10363000002283F82420012307E07B681B689B6835
:1036400003F00103012BD8D1002318461037BD46E3
:1036500080BD00BF4C00002083DE1B4380B584B0DA
:1036600000AF78600023FB607B681B689B6803F0F9
:103670000103012B2ED17B681B689A687B681B684D
:1036800022F001029A60FFF707FCF8601BE0FFF7E9
:1036900003FC0246FB68D31A022B14D97B681B6813
:1036A0009B6803F00103012B0DD17B689B6A43F0FB
:1036B00010027B689A627B68DB6A43F001027B68D8
:1036C000DA62012307E07B681B689B6803F0010353
:1036D000012BDCD0002318461037BD4680BD80B4D6
:1036E00083B000AF786000BF0C37BD4680BC704728
:1036F00080B485B000AF78607B6803F00703FB609F
:103700000C4BDB68BB60BA684FF6FF031340BB602D
:10371000FB681A02BB68134343F0BF6343F40033F2
:10372000BB60044ABB68D36000BF1437BD4680BC91
:10373000704700BF00ED00E080B400AF044BDB68D1
:103740001B0A03F007031846BD4680BC704700BF44
:1037500000ED00E080B483B000AF0346FB7197F941
:103760000730002B0BDBFB7903F01F02064997F9AA
:1037700007305B09012000FA02F241F8232000BF64
:103780000C37BD4680BC704700E100E080B483B0D8
:1037900000AF03463960FB7197F90730002B0ADB55
:1037A0003B68DAB20C4997F907301201D2B20B44E8
:1037B00083F800230AE03B68DAB20849FB7903F09A
:1037C0000F03043B1201D2B20B441A7600BF0C3730
:1037D000BD4680BC704700BF00E100E000ED00E0A6
:1037E00080B489B000AFF860B9607A60FB6803F01C
:1037F0000703FB61FB69C3F10703042B28BF042304
:10380000BB61FB690433062B02D9FB69033B00E073
:1038100000237B614FF0FF32BB6902FA03F3DA4306
:10382000BB681A407B699A404FF0FF317B6901FA0F
:1038300003F3D9437B680B40134318462437BD4636
:1038400080BC704780B582B000AF78607B68013B78
:10385000B3F1807F01D301230FE00A4A7B68013B6B
:1038600053600F214FF0FF30FFF790FF054B002210
:103870009A60044B07221A60002318460837BD4699
:1038800080BD00BF10E000E080B582B000AF78607E
:103890007868FFF72DFF00BF0837BD4680BD80B5B3
:1038A00086B000AF0346B9607A60FB7300237B618A
:1038B000FFF742FF78617A68B9687869FFF790FF8F
:1038C000024697F90F3011461846FFF75FFF00BF19
:1038D0001837BD4680BD80B582B000AF0346FB718E
:1038E00097F907301846FFF735FF00BF0837BD4688
:1038F00080BD80B582B000AF78607868FFF7A2FF26
:10390000034618460837BD4680BD80B485B000AF79
:1039100078600023FB737B6893F82130DBB2022BC5
:1039200008D07B6804229A637B68002283F82020F9
:10393000012320E07B681B681A687B681B6822F003
:103940000E021A607B681B681A687B681B6822F08D
:1039500001021A607B681A6C7B68DB6B012101FA3B
:1039600002F25A607B68012283F821207B680022E2
:1039700083F82020FB7B18461437BD4680BC704777
:1039800080B584B000AF78600023FB737B6893F848
:103990002130DBB2022B05D07B6804229A6301231D
:1039A000FB7351E07B681B681A687B681B6822F018
:1039B0000E021A607B681B681A687B681B6822F01D
:1039C00001021A607B681B68224A934229D07B68F7
:1039D0001B68214A934222D07B681B681F4A93428E
:1039E0001AD07B681B681E4A934212D07B681B6802
:1039F0001C4A93420AD07B681B681B4A934202D13F
:103A00004FF480130EE04FF080730BE04FF48033DF
:103A100008E04FF4805305E04FF4807302E0102378
:103A200000E00123114A53607B68012283F82120C2
:103A30007B68002283F820207B685B6B002B03D01F
:103A40007B685B6B78689847FB7B18461037BD46F0
:103A500080BD00BF080002401C0002403000024050
:103A600044000240580002406C0002400000024046
:103A700080B48BB000AF7860396000237B62002394
:103A80003B6269E101227B6A02FA03F3FB613B6856
:103A90001B68FA691340BB61BA69FB699A4240F03E
:103AA00058813B685B689A4A93425ED0984A934239
:103AB00075D8984A934258D0964A93426FD8964AFE
:103AC000934252D0944A934269D8944A93424CD03C
:103AD000924A934263D8924A934246D0904A934284
:103AE0005DD8122B2AD8122B59D801A252F823F0F4
:103AF0006B3B0008453B0008573B0008993B00081A
:103B00009F3B00089F3B00089F3B00089F3B00082D
:103B10009F3B00089F3B00089F3B00089F3B00081D
:103B20009F3B00089F3B00089F3B00089F3B00080D
:103B30009F3B00084D3B0008613B0008794A9342D7
:103B400013D02CE03B68DB683B6229E03B68DB6814
:103B500004333B6224E03B68DB6808333B621FE0D0
:103B60003B68DB680C333B621AE03B689B68002BC8
:103B700002D104233B6213E03B689B68012B05D113
:103B800008233B627B68FA691A6109E008233B62FB
:103B90007B68FA695A6103E000233B6200E000BFE2
:103BA000BB69FF2B01D87B6801E07B6804337B6134
:103BB000BB69FF2B02D87B6A9B0002E07B6A083B53
:103BC0009B003B617B691A680F213B6901FA03F393
:103BD000DB431A40396A3B6901FA03F31A437B69F4
:103BE0001A603B685B6803F08053002B00F0B180E3
:103BF0004D4B9B694C4A43F0010393614A4B9B69CF
:103C000003F00103BB60BB68484A7B6A9B08023330
:103C100052F82330FB607B6A03F003039B000F2202
:103C200002FA03F3DB43FA681340FB607B68404A07
:103C3000934213D07B683F4A93420DD07B683E4A43
:103C4000934207D07B683D4A934201D1032306E0AB
:103C5000042304E0022302E0012300E000237A6A47
:103C600002F0030292009340FA681343FB602F496D
:103C70007B6A9B080233FA6841F823203B685B6843
:103C800003F48013002B06D02D4B9A682C49BB6996
:103C900013438B6006E02A4B9A68BB69DB432849D3
:103CA00013408B603B685B6803F40013002B06D065
:103CB000234BDA682249BB691343CB6006E0204BF3
:103CC000DA68BB69DB431E491340CB603B685B6825
:103CD00003F40033002B06D0194B5A681849BB690E
:103CE00013434B6006E0164B5A68BB69DB4314492B
:103CF00013404B603B685B6803F48033002B21D09A
:103D00000F4B1A680E49BB6913430B6021E000BFDB
:103D100000003210000031100000221000002110BD
:103D200000001210000011100010024000000140BD
:103D300000080140000C0140001001400014014047
:103D4000000401400B4B1A68BB69DB43094913406F
:103D50000B607B6A01337B623B681A687B6A22FADC
:103D600003F3002B7FF48EAE00BF00BF2C37BD469F
:103D700080BC70470004014080B485B000AF78601B
:103D80000B467B807B689A687B881340002B02D0AF
:103D90000123FB7301E00023FB73FB7B1846143700
:103DA000BD4680BC704780B483B000AF78600B46DE
:103DB0007B8013467B707B78002B03D07A887B68EE
:103DC0001A6103E07B881A047B681A6100BF0C3714
:103DD000BD4680BC7047000080B584B000AF7860FD
:103DE0007B68002B01D101232BE17B6893F83D30E8
:103DF000DBB2002B06D17B68002283F83C20786878
:103E0000FEF7E4FD7B68242283F83D207B681B6875
:103E10001A687B681B6822F001021A607B681B68C5
:103E20001A687B681B6842F400421A607B681B6852
:103E30001A687B681B6822F400421A6001F042F89D
:103E4000F8607B685B68814A934207D8FB68804AC8
:103E5000934294BF01230023DBB206E0FB687D4A56
:103E6000934294BF01230023DBB2002B01D0012336
:103E7000E7E0FB68784AA2FB03239B0CBB607B68EE
:103E80001B685B6823F03F017B681B68BA680A43C4
:103E90005A607B681B681B6A23F03F017B685B6884
:103EA0006A4A934202D8BB68013309E0BB684FF409
:103EB000967202FB03F3694AA2FB03239B090133B9
:103EC0007A6812680B4313627B681B68DB6923F412
:103ED0004F4222F0FF027B685B685C498B4219D835
:103EE000FB68591E7B685B685B00B1FBF3F3591CF0
:103EF00040F6FC730B40002B0AD0FB68591E7B6810
:103F00005B685B00B1FBF3F30133C3F30B0351E0D8
:103F100004234FE07B689B68002B11D1FB68581E7F
:103F20007B6859680B465B000B44B0FBF3F301332D
:103F3000C3F30B03002B0CBF01230023DBB212E001
:103F4000FB68581E7B6859680B469B000B44990020
:103F50000B44B0FBF3F30133C3F30B03002B0CBF93
:103F600001230023DBB2002B01D0012322E07B6878
:103F70009B68002B0ED1FB68581E7B6859680B4666
:103F80005B000B44B0FBF3F30133C3F30B0343F4C7
:103F900000430FE0FB68581E7B6859680B469B0086
:103FA0000B4499000B44B0FBF3F30133C3F30B0351
:103FB00043F44043796809681343CB617B681B680D
:103FC0001B6823F0C0017B68DA697B681B6A1A43AF
:103FD0007B681B680A431A607B681B689B6823F434
:103FE000034323F0FF037A6811697A68D2681143AA
:103FF0007A6812680B4393607B681B68DB6823F068
:10400000FF017B685A697B689B691A437B681B6860
:104010000A43DA607B681B681A687B681B6842F099
:1040200001021A607B6800221A647B68202283F8F0
:104030003D207B6800221A637B68002283F83E20C3
:10404000002318461037BD4680BD00BFA086010082
:104050007F841E00FF083D0083DE1B43D34D6210AA
:1040600080B588B002AFF860084611461A4603468C
:104070007B810B463B811346FB80FEF70DFF786189
:10408000FB6893F83D30DBB2202B40F0D9807B6990
:104090000093192301226D49F86800F071F9034675
:1040A000002B01D00223CCE0FB6893F83C30012BBD
:1040B00001D10223C5E0FB68012283F83C20FB68A4
:1040C0001B681B6803F00103012B07D0FB681B680A
:1040D0001A68FB681B6842F001021A60FB681B68E3
:1040E0001A68FB681B6822F400621A60FB682122D0
:1040F00083F83D20FB68402283F83E20FB680022C5
:104100001A64FB683A6A5A62FB68BA8C5A85FB6883
:104110005B8D9AB2FB681A85FB684D4ADA62F888B3
:104120003A8979897B690193BB6A00930346F868F1
:1041300000F090F80346002B52D0012381E07A6909
:10414000B96AF86800F036FA0346002B0DD0FB6818
:104150001B6C042B07D1FB681B681A68FB681B6883
:1041600042F400721A6001236BE0FB685B6A1A7804
:10417000FB681B681A61FB685B6A5A1CFB685A6221
:10418000FB681B8D013B9AB2FB681A85FB685B8D4F
:104190009BB2013B9AB2FB685A85FB681B685B695E
:1041A00003F00403042B1BD1FB681B8D002B17D0DD
:1041B000FB685B6A1A78FB681B681A61FB685B6ABC
:1041C0005A1CFB685A62FB681B8D013B9AB2FB6864
:1041D0001A85FB685B8D9BB2013B9AB2FB685A85DE
:1041E000FB681B8D002BAAD17A69B96AF86800F0C8
:1041F00029FA0346002B0DD0FB681B6C042B07D15A
:10420000FB681B681A68FB681B6842F400721A603E
:10421000012316E0FB681B681A68FB681B6842F400
:1042200000721A60FB68202283F83D20FB680022A0
:1042300083F83E20FB68002283F83C20002300E046
:10424000022318461837BD4680BD00BF020010008B
:104250000000FFFF80B588B002AFF8600846114645
:104260001A4603467B810B463B811346FB80FB6865
:104270001B681A68FB681B6842F480721A607B6ACC
:1042800000933B6A00224FF00111F86800F078F8C3
:104290000346002B0DD0FB681B681B6803F480737A
:1042A000B3F5807F03D1FB684FF400721A640323D7
:1042B0005FE07B89DBB21A46FB681B6802F0FE02F6
:1042C0001A617B6A3A6A2D49F86800F0D3F8034610
:1042D000002B01D001234CE000237B61FB681B68AD
:1042E0005B697B61FB681B689B697B617B697A6AA0
:1042F000396AF86800F05EF90346002B0DD0FB68C0
:104300001B6C042B07D1FB681B681A68FB681B68D1
:1043100042F400721A6001232BE0FB88012B05D1C7
:104320003B89DAB2FB681B681A6121E03B891B0AF2
:104330009BB2DAB2FB681B681A617A6A396AF8685C
:1043400000F038F90346002B0DD0FB681B6C042BE2
:1043500007D1FB681B681A68FB681B6842F400728F
:104360001A60012305E03B89DAB2FB681B681A6119
:10437000002318461837BD4680BD00BF020001006B
:1043800080B584B000AFF860B9603B601346FB7144
:1043900048E03B68B3F1FF3F44D0FEF77DFD0246A5
:1043A000BB69D31A3A689A4202D33B68002B39D1D1
:1043B000BB681B0CDBB2012B0DD1FB681B685B6972
:1043C000DA43BB6813409BB2002B0CBF01230023D0
:1043D000DBB21A460CE0FB681B689B69DA43BB68DA
:1043E00013409BB2002B0CBF01230023DBB21A4603
:1043F000FB799A4216D1FB6800221A63FB682022DF
:1044000083F83D20FB68002283F83E20FB681B6C8C
:1044100043F02002FB681A64FB68002283F83C200A
:10442000012323E0BB681B0CDBB2012B0DD1FB6821
:104430001B685B69DA43BB6813409BB2002B0CBF5F
:1044400001230023DBB21A460CE0FB681B689B6962
:10445000DA43BB6813409BB2002B0CBF012300233F
:10446000DBB21A46FB799A4293D0002318461037E4
:10447000BD4680BD80B584B000AFF860B9607A6099
:104480003B6071E0FB681B685B6903F48063B3F514
:10449000806F23D1FB681B681A68FB681B6842F4B5
:1044A00000721A60FB681B686FF480625A61FB68D7
:1044B00000221A63FB68202283F83D20FB6800225B
:1044C00083F83E20FB681B6C43F00402FB681A640F
:1044D000FB68002283F83C20012367E07B68B3F18E
:1044E000FF3F41D0FEF7D8FC02463B68D31A7A68FA
:1044F0009A4202D37B68002B36D1BB681B0CDBB21F
:10450000012B0CD1FB681B685B69DA43BB68134065
:104510009BB2002B14BF01230023DBB20BE0FB682E
:104520001B689B69DA43BB6813409BB2002B14BF26
:1045300001230023DBB2002B16D0FB6800221A6394
:10454000FB68202283F83D20FB68002283F83E2090
:10455000FB681B6C43F02002FB681A64FB680022B6
:1045600083F83C20012321E0BB681B0CDBB2012B4C
:104570000CD1FB681B685B69DA43BB6813409BB2D4
:10458000002B14BF01230023DBB20BE0FB681B6888
:104590009B69DA43BB6813409BB2002B14BF012315
:1045A0000023DBB2002B7FF46DAF002318461037D9
:1045B000BD4680BD80B584B000AFF860B9607A6058
:1045C00034E0F86800F086F80346002B01D00123A0
:1045D00034E0BB68B3F1FF3F28D0FEF75DFC024634
:1045E0007B68D31ABA689A4202D3BB68002B1DD1EC
:1045F000FB681B685B6903F08003802B16D0FB68A7
:1046000000221A63FB68202283F83D20FB68002209
:1046100083F83E20FB681B6C43F02002FB681A64A1
:10462000FB68002283F83C20012307E0FB681B683D
:104630005B6903F08003802BC3D100231846103739
:10464000BD4680BD80B584B000AFF860B9607A60C7
:1046500034E0F86800F03EF80346002B01D0012357
:1046600034E0BB68B3F1FF3F28D0FEF715FC0246EB
:104670007B68D31ABA689A4202D3BB68002B1DD15B
:10468000FB681B685B6903F00403042B16D0FB680E
:1046900000221A63FB68202283F83D20FB68002279
:1046A00083F83E20FB681B6C43F02002FB681A6411
:1046B000FB68002283F83C20012307E0FB681B68AD
:1046C0005B6903F00403042BC3D1002318461037A1
:1046D000BD4680BD80B483B000AF78607B681B6846
:1046E0005B6903F48063B3F5806F1BD17B681B6843
:1046F0006FF480625A617B6800221A637B68202213
:1047000083F83D207B68002283F83E207B681B6C89
:1047100043F004027B681A647B68002283F83C2023
:10472000012300E0002318460C37BD4680BC7047CB
:1047300080B586B000AF78607B68002B01D1012383
:1047400072E27B681B6803F00103002B00F0878096
:10475000924B5B6803F00C03042B0CD08F4B5B680F
:1047600003F00C03082B12D18C4B5B6803F48033ED
:10477000B3F5803F0BD1894B1B6803F40033002B4A
:104780006CD07B685B68002B68D101234CE27B68AE
:104790005B68B3F5803F06D1804B1B687F4A43F4CA
:1047A000803313602EE07B685B68002B0CD17B4B61
:1047B0001B687A4A23F480331360784B1B68774A6E
:1047C00023F4802313601DE07B685B68B3F5A02FA2
:1047D0000CD1724B1B68714A43F4802313606F4BFA
:1047E0001B686E4A43F4803313600BE06B4B1B680D
:1047F0006A4A23F480331360684B1B68674A23F4CA
:10480000802313607B685B68002B13D0FEF744FBAA
:10481000386108E0FEF740FB02463B69D31A642B7F
:1048200001D9032300E25D4B1B6803F40033002B26
:10483000F0D014E0FEF730FB386108E0FEF72CFB07
:1048400002463B69D31A642B01D90323ECE1534B95
:104850001B6803F40033002BF0D100E000BF7B683D
:104860001B6803F00203002B63D04C4B5B6803F022
:104870000C03002B0BD0494B5B6803F00C03082B97
:104880001CD1464B5B6803F48033002B16D1434B9D
:104890001B6803F00203002B05D07B681B69012B0A
:1048A00001D00123C0E13D4B1B6823F0F8027B6877
:1048B0005B69DB00394913430B603AE07B681B6995
:1048C000002B20D0364B01221A60FEF7E5FA386142
:1048D00008E0FEF7E1FA02463B69D31A022B01D940
:1048E0000323A1E12D4B1B6803F00203002BF0D042
:1048F0002A4B1B6823F0F8027B685B69DB002749C1
:1049000013430B6015E0264B00221A60FEF7C4FA31
:10491000386108E0FEF7C0FA02463B69D31A022B61
:1049200001D9032380E11D4B1B6803F00203002B18
:10493000F0D17B681B6803F00803002B3AD07B683A
:104940009B69002B19D0174B01221A60FEF7A4FABD
:10495000386108E0FEF7A0FA02463B69D31A022B41
:1049600001D9032360E10D4B5B6A03F00203002BC6
:10497000F0D0012000F0CEFA1CE00A4B00221A60B1
:10498000FEF78AFA38610FE0FEF786FA02463B69C5
:10499000D31A022B08D9032346E100BF00100240BE
:1049A0000000424280044242924B5B6A03F00203E1
:1049B000002BE9D17B681B6803F00403002B00F097
:1049C000A6800023FB758B4BDB6903F08053002B23
:1049D0000DD1884BDB69874A43F08053D361854B07
:1049E000DB6903F08053BB60BB680123FB75824B1E
:1049F0001B6803F48073002B18D17F4B1B687E4A21
:104A000043F480731360FEF747FA386108E0FEF75D
:104A100043FA02463B69D31A642B01D9032303E10D
:104A2000754B1B6803F48073002BF0D07B68DB6848
:104A3000012B06D16F4B1B6A6E4A43F001031362D0
:104A40002DE07B68DB68002B0CD16A4B1B6A694A3E
:104A500023F001031362674B1B6A664A23F00403C9
:104A600013621CE07B68DB68052B0CD1614B1B6A71
:104A7000604A43F0040313625E4B1B6A5D4A43F0D5
:104A8000010313620BE05B4B1B6A5A4A23F00103DC
:104A90001362584B1B6A574A23F0040313627B6866
:104AA000DB68002B15D0FEF7F7F938610AE0FEF756
:104AB000F3F902463B69D31A41F28832934201D995
:104AC0000323B1E04B4B1B6A03F00203002BEED033
:104AD00014E0FEF7E1F938610AE0FEF7DDF902467D
:104AE0003B69D31A41F28832934201D903239BE0F8
:104AF000404B1B6A03F00203002BEED1FB7D012B20
:104B000005D13C4BDB693B4A23F08053D3617B6882
:104B1000DB69002B00F08780364B5B6803F00C03E9
:104B2000082B61D07B68DB69022B46D1334B002216
:104B30001A60FEF7B1F9386108E0FEF7ADF90246F8
:104B40003B69D31A022B01D903236DE0294B1B6863
:104B500003F00073002BF0D17B681B6AB3F5803F34
:104B600008D1244B5B6823F400327B689B682149A1
:104B700013434B601F4B5B6823F474127B68196A04
:104B80007B685B6A0B431B4913434B601B4B012241
:104B90001A60FEF781F9386108E0FEF77DF90246F8
:104BA0003B69D31A022B01D903233DE0114B1B684B
:104BB00003F00073002BF0D035E0104B00221A6098
:104BC000FEF76AF9386108E0FEF766F902463B69CC
:104BD000D31A022B01D9032326E0064B1B6803F0EE
:104BE0000073002BF0D11EE07B68DB69012B07D13D
:104BF000012319E0001002400070004060004242B2
:104C00000B4B5B68FB60FB6803F480327B681B6ABC
:104C10009A4206D1FB6803F470127B685B6A9A4281
:104C200001D0012300E0002318461837BD4680BD9F
:104C30000010024080B584B000AF786039607B68B6
:104C4000002B01D10123D0E06A4B1B6803F007035E
:104C50003A689A4210D9674B1B6823F007026549EE
:104C60003B6813430B60634B1B6803F007033A6810
:104C70009A4201D00123B8E07B681B6803F002036D
:104C8000002B20D07B681B6803F00403002B05D0A9
:104C9000594B5B68584A43F4E06353607B681B6878
:104CA00003F00803002B05D0534B5B68524A43F4D2
:104CB00060535360504B5B6823F0F0027B689B6845
:104CC0004D4913434B607B681B6803F00103002BC5
:104CD00040D07B685B68012B07D1474B1B6803F40E
:104CE0000033002B15D101237FE07B685B68022B2A
:104CF00007D1414B1B6803F00073002B09D101233E
:104D000073E03D4B1B6803F00203002B01D101232C
:104D10006BE0394B5B6823F003027B685B683649C4
:104D200013434B60FEF7B8F8F8600AE0FEF7B4F8FA
:104D30000246FB68D31A41F28832934201D9032319
:104D400053E02D4B5B6803F00C027B685B689B00B3
:104D50009A42EBD1274B1B6803F007033A689A424B
:104D600010D2244B1B6823F0070222493B681343EF
:104D70000B60204B1B6803F007033A689A4201D08E
:104D8000012332E07B681B6803F00403002B08D08A
:104D9000194B5B6823F4E0627B68DB6816491343B8
:104DA0004B607B681B6803F00803002B09D0124B93
:104DB0005B6823F460527B681B69DB000E49134378
:104DC0004B6000F021F802460B4B5B681B0903F0B7
:104DD0000F030A49CB5C22FA03F3094A1360094B1B
:104DE0001B681846FEF716F8002318461037BD4614
:104DF00080BD00BF00200240001002406CD10008BE
:104E00004C0000205000002080B487B000AF002389
:104E1000FB600023BB6000237B6100237B600023D9
:104E20003B611E4B5B68FB60FB6803F00C03042BCB
:104E300002D0082B03D027E0194B3B6127E0FB6829
:104E40009B0C03F00F03174AD35C7B60FB6803F4F1
:104E50008033002B10D0114B5B685B0C03F0010317
:104E6000114AD35CBB607B680D4A03FB02F2BB684E
:104E7000B2FBF3F37B6104E07B680C4A02FB03F3B3
:104E80007B617B693B6102E0054B3B6100BF3B6995
:104E900018461C37BD4680BC704700BF001002405A
:104EA00000127A0084D1000894D1000800093D0066
:104EB00080B400AF024B1B681846BD4680BC7047EB
:104EC0004C00002080B500AFFFF7F2FF0246054B13
:104ED0005B681B0A03F007030349CB5C22FA03F368
:104EE000184680BD001002407CD1000880B500AF9C
:104EF000FFF7DEFF0246054B5B68DB0A03F00703A2
:104F00000349CB5C22FA03F3184680BD001002402F
:104F10007CD1000880B485B000AF78600A4B1B6874
:104F20000A4AA2FB03235B0A7A6802FB03F3FB60D5
:104F300000BFFB685A1EFA60002BF9D100BF00BF0A
:104F40001437BD4680BC70474C000020D34D621022
:104F500080B586B000AF786000233B610023FB6022
:104F60007B681B6803F00103002B7DD00023FB75D9
:104F70004F4BDB6903F08053002B0DD14C4BDB69A9
:104F80004B4A43F08053D361494BDB6903F08053B4
:104F9000BB60BB680123FB75464B1B6803F4807341
:104FA000002B18D1434B1B68424A43F480731360B3
:104FB000FDF772FF386108E0FDF76EFF02463B69BE
:104FC000D31A642B01D903236DE03A4B1B6803F419
:104FD0008073002BF0D0364B1B6A03F44073FB60E8
:104FE000FB68002B2ED07B685B6803F44073FA6883
:104FF0009A4227D02E4B1B6A23F44073FB602E4B42
:1050000001221A602C4B00221A60294AFB681362A5
:10501000FB6803F00103002B14D0FDF73DFF38615E
:105020000AE0FDF739FF02463B69D31A41F28832A4
:10503000934201D9032336E01D4B1B6A03F00203A0
:10504000002BEED01A4B1B6A23F440727B685B681E
:10505000174913430B62FB7D012B05D1144BDB6910
:10506000134A23F08053D3617B681B6803F002036B
:10507000002B08D00E4B5B6823F440427B689B6892
:105080000B4913434B607B681B6803F01003002B34
:1050900008D0074B5B6823F480027B68DB68044917
:1050A00013434B60002318461837BD4680BD00BF30
:1050B00000100240007000404004424280B582B0BF
:1050C00000AF78607B68002B01D1012341E07B6851
:1050D00093F83D30DBB2002B06D17B68002283F8C9
:1050E0003C207868FDF7B2FC7B68022283F83D2003
:1050F0007B681A687B6804331946104600F0B2FAE0
:105100007B68012283F846207B68012283F83E20D9
:105110007B68012283F83F207B68012283F84020CE
:105120007B68012283F841207B68012283F84220BA
:105130007B68012283F843207B68012283F84420A6
:105140007B68012283F845207B68012283F83D209B
:10515000002318460837BD4680BD80B582B000AF39
:1051600078607B68002B01D1012341E07B6893F8D4
:105170003D30DBB2002B06D17B68002283F83C2057
:10518000786800F039F87B68022283F83D207B685C
:105190001A687B6804331946104600F063FA7B688E
:1051A000012283F846207B68012283F83E207B6839
:1051B000012283F83F207B68012283F840207B682E
:1051C000012283F841207B68012283F842207B681A
:1051D000012283F843207B68012283F844207B6806
:1051E000012283F845207B68012283F83D200023BB
:1051F00018460837BD4680BD80B483B000AF7860E4
:1052000000BF0C37BD4680BC7047000080B584B03D
:1052100000AF786039603B68002B09D17B6893F858
:105220003E30DBB2012B14BF01230023DBB222E0AE
:105230003B68042B09D17B6893F83F30DBB2012B2C
:1052400014BF01230023DBB215E03B68082B09D112
:105250007B6893F84030DBB2012B14BF012300239D
:10526000DBB208E07B6893F84130DBB2012B14BF5E
:1052700001230023DBB2002B01D001235EE03B6859
:10528000002B04D17B68022283F83E2013E03B68A8
:10529000042B04D17B68022283F83F200BE03B689B
:1052A000082B04D17B68022283F8402003E07B684E
:1052B000022283F841207B681B6801223968184666
:1052C00000F050FC7B681B681E4A934207D17B6844
:1052D0001B685A6C7B681B6842F400425A647B6806
:1052E0001B68184A93420ED07B681B68B3F1804F4D
:1052F00009D07B681B68144A934204D07B681B6802
:10530000124A934211D17B681B689B6803F0070324
:10531000FB60FB68062B10D07B681B681A687B68F3
:105320001B6842F001021A6007E07B681B681A687C
:105330007B681B6842F001021A6000231846103790
:10534000BD4680BD002C0140000400400008004024
:1053500080B586B000AFF860B9607A600023FB7555
:10536000FB6893F83C30012B01D10223AEE0FB68CF
:10537000012283F83C207B680C2B00F29F8001A265
:1053800052F823F0B9530008BD540008BD5400087A
:10539000BD540008F9530008BD540008BD5400086E
:1053A000BD5400083B540008BD540008BD5400081B
:1053B000BD5400087B540008FB681B68B968184698
:1053C00000F0B2F9FB681B689A69FB681B6842F041
:1053D00008029A61FB681B689A69FB681B6822F0E7
:1053E00004029A61FB681B689969BB681A69FB68CB
:1053F0001B680A439A6164E0FB681B68B968184639
:1054000000F0F8F9FB681B689A69FB681B6842F4B6
:1054100000629A61FB681B689A69FB681B6822F44A
:1054200080629A61FB681B689969BB681B691A02F4
:10543000FB681B680A439A6143E0FB681B68B96814
:10544000184600F041FAFB681B68DA69FB681B68C4
:1054500042F00802DA61FB681B68DA69FB681B68C6
:1054600022F00402DA61FB681B68D969BB681A691B
:10547000FB681B680A43DA6123E0FB681B68B968B4
:10548000184600F08BFAFB681B68DA69FB681B683A
:1054900042F40062DA61FB681B68DA69FB681B682A
:1054A00022F48062DA61FB681B68D969BB681B69FA
:1054B0001A02FB681B680A43DA6102E00123FB75EC
:1054C00000BFFB68002283F83C20FB7D184618379C
:1054D000BD4680BD80B584B000AF786039600023E0
:1054E000FB737B6893F83C30012B01D10223B4E0BD
:1054F0007B68012283F83C207B68022283F83D20F0
:105500007B681B689B68BB60BB6823F07703BB604C
:10551000BB6823F47F43BB607B681B68BA689A60F2
:105520003B681B68B3F5005F3ED0B3F5005F00F247
:105530008780B3F5805F00F08680B3F5805F7FD809
:10554000702B1AD0702B7BD8602B50D0602B77D863
:10555000502B3CD0502B73D8402B58D0402B6FD8B9
:10556000302B64D0302B6BD8202B60D0202B67D809
:10557000002B5CD0102B5AD062E07B6818683B6827
:1055800099683B685A683B68DB6800F0CCFA7B6836
:105590001B689B68BB60BB6843F07703BB607B689C
:1055A0001B68BA689A604FE07B6818683B68996826
:1055B0003B685A683B68DB6800F0B5FA7B681B689B
:1055C0009A687B681B6842F480429A603CE07B6882
:1055D00018683B6859683B68DB681A4600F02CFA8B
:1055E0007B681B685021184600F083FA2CE07B682A
:1055F00018683B6859683B68DB681A4600F04AFA4D
:105600007B681B686021184600F073FA1CE07B6819
:1056100018683B6859683B68DB681A4600F00CFA6A
:105620007B681B684021184600F063FA0CE07B6839
:105630001A683B681B681946104600F05AFA03E0E6
:105640000123FB7300E000BF7B68012283F83D204B
:105650007B68002283F83C20FB7B18461037BD4650
:1056600080BD000080B485B000AF786039607B6891
:105670001B68FB607B68294A93420BD07B68B3F1BF
:10568000804F07D07B68264A934203D07B68254A27
:10569000934208D1FB6823F07003FB603B685B68B2
:1056A000FA681343FB607B681C4A93420BD07B680B
:1056B000B3F1804F07D07B68194A934203D07B68CF
:1056C000184A934208D1FB6823F44073FB603B689F
:1056D000DB68FA681343FB60FB6823F080023B68D9
:1056E0005B691343FB607B68FA681A603B689A68E1
:1056F0007B68DA623B681A687B689A627B68074A53
:10570000934203D13B681A697B681A637B68012264
:105710005A6100BF1437BD4680BC7047002C014061
:10572000000400400008004080B487B000AF7860FB
:1057300039607B681B6A7B617B681B6A23F001020E
:105740007B681A627B685B683B617B689B69FB6076
:10575000FB6823F07003FB60FB6823F00303FB602E
:105760003B681B68FA681343FB607B6923F0020304
:105770007B613B689B687A6913437B617B681C4A49
:1057800093420CD17B6923F008037B613B68DB68A3
:105790007A6913437B617B6923F004037B617B6837
:1057A000134A934211D13B6923F480733B613B69F7
:1057B00023F400733B613B685B693A6913433B61C7
:1057C0003B689B693A6913433B617B683A695A605D
:1057D0007B68FA689A613B685A687B685A637B68A1
:1057E0007A691A6200BF1C37BD4680BC704700BF93
:1057F000002C014080B487B000AF786039607B68CE
:105800001B6A7B617B681B6A23F010027B681A624B
:105810007B685B683B617B689B69FB60FB6823F48A
:10582000E043FB60FB6823F44073FB603B681B684C
:105830001B02FA681343FB607B6923F020037B6142
:105840003B689B681B017A6913437B617B681D4A37
:1058500093420DD17B6923F080037B613B68DB6859
:105860001B017A6913437B617B6923F040037B61F1
:105870007B68144A934213D13B6923F480633B61F4
:105880003B6923F400633B613B685B699B003A69B9
:1058900013433B613B689B699B003A6913433B613F
:1058A0007B683A695A607B68FA689A613B685A6813
:1058B0007B689A637B687A691A6200BF1C37BD46B1
:1058C00080BC7047002C014080B487B000AF786086
:1058D00039607B681B6A7B617B681B6A23F480727A
:1058E0007B681A627B685B683B617B68DB69FB6095
:1058F000FB6823F07003FB60FB6823F00303FB608D
:105900003B681B68FA681343FB607B6923F40073F0
:105910007B613B689B681B027A6913437B617B68F0
:105920001D4A93420DD17B6923F400637B613B6880
:10593000DB681B027A6913437B617B6923F4806314
:105940007B617B68144A934213D13B6923F48053F3
:105950003B613B6923F400533B613B685B691B017E
:105960003A6913433B613B689B691B013A691343E6
:105970003B617B683A695A607B68FA68DA613B6828
:105980005A687B68DA637B687A691A6200BF1C37E1
:10599000BD4680BC704700BF002C014080B487B07A
:1059A00000AF786039607B681B6A3B617B681B6A6B
:1059B00023F480527B681A627B685B687B617B683A
:1059C000DB69FB60FB6823F4E043FB60FB6823F4C6
:1059D0004073FB603B681B681B02FA681343FB6063
:1059E0003B6923F400533B613B689B681B033A69A6
:1059F00013433B617B680F4A934209D17B6923F4CF
:105A000080437B613B685B699B017A6913437B61DF
:105A10007B687A695A607B68FA68DA613B685A6821
:105A20007B681A647B683A691A6200BF1C37BD46FE
:105A300080BC7047002C014080B487B000AFF86094
:105A4000B9607A60FB681B6A7B61FB681B6A23F0A4
:105A50000102FB681A62FB689B693B613B6923F0AA
:105A6000F0033B617B681B013A6913433B617B692F
:105A700023F00A037B617A69BB6813437B61FB688F
:105A80003A699A61FB687A691A6200BF1C37BD46A1
:105A900080BC704780B487B000AFF860B9607A60AE
:105AA000FB681B6A7B61FB681B6A23F01002FB68C2
:105AB0001A62FB689B693B613B6923F470433B615D
:105AC0007B681B033A6913433B617B6923F0A003A6
:105AD0007B61BB681B017A6913437B61FB683A6990
